:020000040800F2
:100000000050002059280008552600085B260008EB
:1000100061260008672600086D2600080000000021
:10002000000000000000000000000000732600082F
:100030007F260008000000008B2600089726000895
:10004000A1280008A1280008A1280008A12800086C
:10005000A1280008A1280008A1280008A12800085C
:10006000A1280008A1280008A1280008A12800084C
:10007000A1280008A1280008A1280008A12800083C
:10008000A1280008A1280008A1280008A12800082C
:10009000A1280008A1280008A1280008A12800081C
:1000A000A1280008A1280008A1280008A12800080C
:1000B000A5260008B9260008A1280008A1280008E4
:1000C000A1280008A1280008A1280008A1280008EC
:1000D000A1280008A1280008A1280008A1280008DC
:1000E000A1280008A1280008A1280008000000009D
:1000F0000000000000000000000000000000000000
:0C01000000000000000000005FF808F1A3
:1001100010B5054C237833B9044B13B10448AFF341
:1001200000800123237010BDE001002000000000CA
:100130000483000808B5034B1BB103490348AFF320
:10014000008008BD00000000E401002004830008D6
:10015000034613F8012B002AFBD1181A0138704707
:1001600081F0004102E000BF83F0004330B54FEA68
:1001700041044FEA430594EA050F08BF90EA020FD5
:100180001FBF54EA000C55EA020C7FEA645C7FEA68
:10019000655C00F0E2804FEA5454D4EB5555B8BF8B
:1001A0006D420CDD2C4480EA020281EA030382EAFC
:1001B000000083EA010180EA020281EA0303362D8E
:1001C00088BF30BD11F0004F4FEA01314FF4801C61
:1001D0004CEA113102D0404261EB410113F0004F73
:1001E0004FEA03334CEA133302D0524263EB43032A
:1001F00094EA050F00F0A780A4F10104D5F1200EC8
:100200000DDB02FA0EFC22FA05F2801841F1000122
:1002100003FA0EF2801843FA05F359410EE0A5F1F6
:1002200020050EF1200E012A03FA0EFC28BF4CF027
:10023000020C43FA05F3C01851EBE37101F00045DD
:1002400007D54FF0000EDCF1000C7EEB00006EEBEA
:100250000101B1F5801F1BD3B1F5001F0CD3490874
:100260005FEA30004FEA3C0C04F101044FEA4452CB
:1002700012F5800F80F09A80BCF1004F08BF5FEA52
:10028000500C50F1000041EB045141EA050130BD32
:100290005FEA4C0C404141EB0101013C28BFB1F544
:1002A000801FE9D291F0000F04BF01460020B1FA8F
:1002B00081F308BF2033A3F10B03B3F120020CDA62
:1002C0000C3208DD02F1140CC2F10C0201FA0CF040
:1002D00021FA02F10CE002F11402D8BFC2F1200CA5
:1002E00001FA02F120FA0CFCDCBF41EA0C0190405B
:1002F000E41AA2BF01EB0451294330BD6FEA0404A4
:100300001F3C1CDA0C340EDC04F11404C4F120028E
:1003100020FA04F001FA02F340EA030021FA04F3A0
:1003200045EA030130BDC4F10C04C4F1200220FAF7
:1003300002F001FA04F340EA0300294630BD21FA35
:1003400004F0294630BD94F0000F83F4801306BFFB
:1003500081F480110134013D4EE77FEA645C18BFEF
:100360007FEA655C29D094EA050F08BF90EA020F86
:1003700005D054EA000C04BF1946104630BD91EA7E
:10038000030F1EBF0021002030BD5FEA545C05D181
:100390004000494128BF41F0004130BD14F58004C0
:1003A0003CBF01F5801130BD01F0004545F0FE4134
:1003B00041F470014FF0000030BD7FEA645C1ABF69
:1003C000194610467FEA655C1CBF0B46024650EAA0
:1003D000013406BF52EA033591EA030F41F40021CC
:1003E00030BD00BF90F0000F04BF0021704730B552
:1003F0004FF4806404F132044FF000054FF0000127
:1004000050E700BF90F0000F04BF0021704730B5E7
:100410004FF4806404F1320410F0004548BF4042BC
:100420004FF000013EE700BF42004FEAE2014FEA11
:1004300031014FEA02701FBF12F07F4393F07F4FEC
:1004400081F06051704732F07F4208BF704793F0EF
:100450007F4F04BF41F40021704730B54FF4607402
:1004600001F0004521F000411CE700BF50EA010205
:1004700008BF704730B54FF000050AE050EA0102AE
:1004800008BF704730B511F0004502D5404261EB1E
:1004900041014FF4806404F132045FEA915C3FF45F
:1004A000D8AE4FF003025FEADC0C18BF03325FEAFC
:1004B000DC0C18BF033202EBDC02C2F1200300FAAD
:1004C00003FC20FA02F001FA03FE40EA0E0021FAD2
:1004D00002F11444BDE600BF70B54FF0FF0C4CF4C0
:1004E000E06C1CEA11541DBF1CEA135594EA0C0F72
:1004F00095EA0C0F00F0DEF82C4481EA030621EAAD
:100500004C5123EA4C5350EA013518BF52EA0335E7
:1005100041F4801143F4801338D0A0FB02CE4FF099
:100520000005E1FB02E506F00042E0FB03E54FF0C9
:100530000006E1FB03569CF0000F18BF4EF0010EC1
:10054000A4F1FF04B6F5007F64F5407404D25FEABD
:100550004E0E6D4146EB060642EAC62141EA555170
:100560004FEAC52040EA5E504FEACE2EB4F1FD0CB2
:1005700088BFBCF5E06F1ED8BEF1004F08BF5FEA30
:10058000500E50F1000041EB045170BD06F00046E2
:1005900046EA010140EA020081EA0301B4EB5C048F
:1005A000C2BFD4EB0C0541EA045170BD41F4801187
:1005B0004FF0000E013C00F3AB8014F1360FDEBFAC
:1005C000002001F0004170BDC4F10004203C35DA88
:1005D0000C341BDC04F11404C4F1200500FA05F30B
:1005E00020FA04F001FA05F240EA020001F00042AC
:1005F00021F0004110EBD37021FA04F642EB060122
:100600005EEA430E08BF20EAD37070BDC4F10C044B
:10061000C4F1200500FA04F320FA05F001FA04F20F
:1006200040EA020001F0004110EBD37041F10001FB
:100630005EEA430E08BF20EAD37070BDC4F1200506
:1006400000FA05F24EEA020E20FA04F301FA05F26E
:1006500043EA020321FA04F001F0004121FA04F216
:1006600020EA020000EBD3705EEA430E08BF20EAE6
:10067000D37070BD94F0000F0FD101F00046400020
:1006800041EB010111F4801F08BF013CF7D041EAA2
:10069000060195F0000F18BF704703F000465200A6
:1006A00043EB030313F4801F08BF013DF7D043EA77
:1006B0000603704794EA0C0F0CEA135518BF95EA2D
:1006C0000C0F0CD050EA410618BF52EA4306D1D1B4
:1006D00081EA030101F000414FF0000070BD50EAD3
:1006E000410606BF1046194652EA430619D094EA5D
:1006F0000C0F02D150EA013613D195EA0C0F05D147
:1007000052EA03361CBF104619460AD181EA03019A
:1007100001F0004141F0FE4141F470014FF0000052
:1007200070BD41F0FE4141F4780170BD70B54FF0ED
:10073000FF0C4CF4E06C1CEA11541DBF1CEA13556D
:1007400094EA0C0F95EA0C0F00F0A7F8A4EB05044F
:1007500081EA030E52EA03354FEA013100F0888046
:100760004FEA03334FF0805545EA131343EA12630F
:100770004FEA022245EA111545EA10654FEA0026C4
:100780000EF000419D4208BF964244F1FD0404F57D
:10079000407402D25B084FEA3202B61A65EB0305D9
:1007A0005B084FEA32024FF480104FF4002CB6EB96
:1007B000020E75EB030E22BFB61A754640EA0C0016
:1007C0005B084FEA3202B6EB020E75EB030E22BF56
:1007D000B61A754640EA5C005B084FEA3202B6EB97
:1007E000020E75EB030E22BFB61A754640EA9C0056
:1007F0005B084FEA3202B6EB020E75EB030E22BF26
:10080000B61A754640EADC0055EA060E18D04FEAE3
:10081000051545EA16754FEA06164FEAC30343EA83
:1008200052734FEAC2025FEA1C1CC0D111F4801F50
:100830000BD141EA00014FF000004FF0004CB6E749
:1008400011F4801F04BF01430020B4F1FD0C88BFE8
:10085000BCF5E06F3FF6AFAEB5EB030C04BFB6EBF3
:10086000020C5FEA500C50F1000041EB045170BDE6
:100870000EF0004E4EEA113114EB5C04C2BFD4EB13
:100880000C0541EA045170BD41F480114FF0000E97
:10089000013C90E645EA060E8DE60CEA135594EA13
:1008A0000C0F08BF95EA0C0F3FF43BAF94EA0C0F16
:1008B0000AD150EA01347FF434AF95EA0C0F7FF48B
:1008C00025AF104619462CE795EA0C0F06D152EADF
:1008D00003353FF4FDAE1046194622E750EA4106C3
:1008E00018BF52EA43067FF4C5AE50EA41047FF4D4
:1008F0000DAF52EA43057FF4EBAE12E74FF0FF3C39
:1009000006E000BF4FF0010C02E000BF4FF0010C09
:100910004DF804CD4FEA410C7FEA6C5C4FEA430C82
:1009200018BF7FEA6C5C1BD001B050EA410C0CBFD1
:1009300052EA430C91EA030F02BF90EA020F002033
:10094000704710F1000F91EA030F58BF994208BF9A
:1009500090422CBFD8176FEAE37040F00100704757
:100960004FEA410C7FEA6C5C02D150EA013C07D1AE
:100970004FEA430C7FEA6C5CD6D152EA033CD3D0F9
:100980005DF8040B704700BF8446104662468C46F3
:100990001946634600E000BF01B5FFF7B7FF002826
:1009A00048BF10F1000F01BD4DF808EDFFF7F4FF4F
:1009B0000CBF012000205DF808FB00BF4DF808EDDA
:1009C000FFF7EAFF34BF012000205DF808FB00BFFD
:1009D0004DF808EDFFF7E0FF94BF012000205DF81F
:1009E00008FB00BF4DF808EDFFF7CEFF94BF0120D4
:1009F00000205DF808FB00BF4DF808EDFFF7C4FFCD
:100A000034BF012000205DF808FB00BF4FEA410C15
:100A10007FEA6C5C02D150EA013C0AD14FEA430CF8
:100A20007FEA6C5C02D152EA033C02D14FF0000035
:100A300070474FF0010070474FEA410212F5001273
:100A400015D211D56FF47873B3EB625212D94FEA15
:100A5000C12343F0004343EA505311F0004F23FAFF
:100A600002F018BF404270474FF00000704750EA54
:100A7000013005D111F0004008BF6FF00040704711
:100A80004FF00000704700BF4FEA4102B2F1E0436F
:100A900024BFB3F5001CDCF1FE5C0DD901F0004C65
:100AA0004FEAC0024CEA5070B2F1004F40EB8300B5
:100AB00008BF20F00100704711F0804F21D113F1E1
:100AC0003872BCBF01F00040704741F480114FEA1A
:100AD0005252C2F11802C2F1200C10FA0CF320FAA3
:100AE00002F018BF40F001004FEAC1234FEAD323C0
:100AF00003FA0CFC40EA0C0023FA02F34FEA43032A
:100B0000CCE77FEA625307D150EA01331EBF4FF0B2
:100B1000FE4040F44000704701F0004040F0FE40CD
:100B200040F40000704700BF80F0004002E000BFCA
:100B300081F0004142001FBF5FEA410392EA030FC8
:100B40007FEA226C7FEA236C6AD04FEA1262D2EB12
:100B50001363C1BFD218414048404140B8BF5B4217
:100B6000192B88BF704710F0004F40F4000020F0B0
:100B70007F4018BF404211F0004F41F4000121F0C6
:100B80007F4118BF494292EA030F3FD0A2F1010210
:100B900041FA03FC10EB0C00C3F1200301FA03F14E
:100BA00000F0004302D5494260EB4000B0F5000F71
:100BB00013D3B0F1807F06D340084FEA310102F130
:100BC0000102FE2A51D2B1F1004F40EBC25008BFE2
:100BD00020F0010040EA03007047490040EB0000AC
:100BE000013A28BFB0F5000FEDD2B0FA80FCACF1AD
:100BF000080CB2EB0C0200FA0CF0AABF00EBC250DA
:100C000052421843BCBFD0401843704792F0000FC7
:100C100081F4000106BF80F400000132013BB5E71A
:100C20004FEA41037FEA226C18BF7FEA236C21D090
:100C300092EA030F04D092F0000F08BF08467047F5
:100C400090EA010F1CBF0020704712F07F4F04D1C3
:100C5000400028BF40F00040704712F100723CBFD6
:100C600000F50000704700F0004343F0FE4040F400
:100C7000000070477FEA226216BF08467FEA2363BE
:100C80000146420206BF5FEA412390EA010F40F4A9
:100C9000800070474FF0000304E000BF10F00043F5
:100CA00048BF40425FEA000C08BF704743F09643DC
:100CB00001464FF000001CE050EA010208BF7047F7
:100CC0004FF000030AE000BF50EA010208BF70477E
:100CD00011F0004302D5404261EB41015FEA010C93
:100CE00002BF84460146002043F0B64308BFA3F18B
:100CF0008053A3F50003BCFA8CF2083AA3EBC2536D
:100D000010DB01FA02FC634400FA02FCC2F120028B
:100D1000BCF1004F20FA02F243EB020008BF20F0C2
:100D20000100704702F1200201FA02FCC2F1200228
:100D300050EA4C0021FA02F243EB020008BF20EA1D
:100D4000DC7070474FF0FF0C1CEAD0521EBF1CEA4B
:100D5000D15392EA0C0F93EA0C0F6FD01A4480EA39
:100D6000010C400218BF5FEA41211ED04FF0006322
:100D700043EA501043EA5111A0FB01310CF000404E
:100D8000B1F5000F3EBF490041EAD3715B0040EA74
:100D9000010062F17F02FD2A1DD8B3F1004F40EB44
:100DA000C25008BF20F00100704790F0000F0CF017
:100DB000004C08BF49024CEA502040EA51207F3ADB
:100DC000C2BFD2F1FF0340EAC250704740F40000B6
:100DD0004FF00003013A5DDC12F1190FDCBF00F0A7
:100DE00000407047C2F10002410021FA02F1C2F155
:100DF000200200FA02FC5FEA310040F1000053EAF1
:100E00004C0308BF20EADC70704792F0000F00F03E
:100E1000004C02BF400010F4000F013AF9D040EA44
:100E20000C0093F0000F01F0004C02BF490011F4D8
:100E3000000F013BF9D041EA0C018FE70CEAD153D6
:100E400092EA0C0F18BF93EA0C0F0AD030F0004C56
:100E500018BF31F0004CD8D180EA010000F000400A
:100E6000704790F0000F17BF90F0004F084691F0C8
:100E7000000F91F0004F14D092EA0C0F01D1420202
:100E80000FD193EA0C0F03D14B0218BF084608D1CB
:100E900080EA010000F0004040F0FE4040F4000015
:100EA000704740F0FE4040F4400070474FF0FF0CA8
:100EB0001CEAD0521EBF1CEAD15392EA0C0F93EAEF
:100EC0000C0F69D0A2EB030280EA010C49024FEA41
:100ED000402037D04FF0805343EA111143EA1013FA
:100EE0000CF000408B4238BF5B0042F17D024FF4B2
:100EF000000C8B4224BF5B1A40EA0C00B3EB510F8D
:100F000024BFA3EB510340EA5C00B3EB910F24BF75
:100F1000A3EB910340EA9C00B3EBD10F24BFA3EBFA
:100F2000D10340EADC001B0118BF5FEA1C1CE0D1C2
:100F3000FD2A3FF650AF8B4240EBC25008BF20F075
:100F4000010070470CF0004C4CEA50207F32C2BFC9
:100F5000D2F1FF0340EAC250704740F400004FF066
:100F60000003013A37E792F0000F00F0004C02BF97
:100F7000400010F4000F013AF9D040EA0C0093F061
:100F8000000F01F0004C02BF490011F4000F013BBB
:100F9000F9D041EA0C0195E70CEAD15392EA0C0F23
:100FA00008D142027FF47DAF93EA0C0F7FF470AF5B
:100FB000084676E793EA0C0F04D14B023FF44CAF9E
:100FC00008466EE730F0004C18BF31F0004CCAD133
:100FD00030F000427FF45CAF31F000437FF43CAF6F
:100FE0005FE700BF4FF0FF3C06E000BF4FF0010C91
:100FF00002E000BF4FF0010C4DF804CD4FEA400273
:101000004FEA41037FEA226C18BF7FEA236C11D0BC
:1010100001B052EA530C18BF90EA010F58BFB2EB6F
:10102000030088BFC81738BF6FEAE17018BF40F0EF
:10103000010070477FEA226C02D15FEA402C05D1A3
:101040007FEA236CE4D15FEA412CE1D05DF8040B28
:10105000704700BF844608466146FFE70FB5FFF7BB
:10106000C9FF002848BF10F1000F0FBD4DF808ED73
:10107000FFF7F4FF0CBF012000205DF808FB00BF64
:101080004DF808EDFFF7EAFF34BF012000205DF8BE
:1010900008FB00BF4DF808EDFFF7E0FF94BF01200B
:1010A00000205DF808FB00BF4DF808EDFFF7D2FF08
:1010B00094BF012000205DF808FB00BF4DF808ED4B
:1010C000FFF7C8FF34BF012000205DF808FB00BF18
:1010D0004FEA4002B2F1FE4F0FD34FF09E03B3EB45
:1010E00012620DD94FEA002343F0004310F0004F85
:1010F00023FA02F018BF404270474FF000007047DB
:1011000012F1610F01D1420205D110F0004008BF79
:101110006FF0004070474FF00000704780B586B018
:1011200002AF0346FB71FB7923F00F03FB73FB79DE
:101130001B01BB73FB7B43F00C03DBB23B72FB7BFD
:1011400043F00803DBB27B72BB7B43F00C03DBB2E2
:10115000BB72BB7B43F00803DBB2FB7207F10802F2
:101160006423009304234E21034802F029F800BFB2
:101170001037BD4680BD00BFFC01002080B586B0A1
:1011800002AF0346FB71FB7923F00F03FB73FB797E
:101190001B01BB73FB7B43F00D03DBB23B72FB7B9C
:1011A00043F00903DBB27B72BB7B43F00D03DBB280
:1011B000BB72BB7B43F00903DBB2FB7207F1080291
:1011C0006423009304234E21034801F0F9FF00BF7C
:1011D0001037BD4680BD00BFFC01002080B582B045
:1011E00000AF0020FFF79AFF00237B6005E020207E
:1011F000FFF7C4FF7B6801337B607B68632BF6DD00
:1012000000BF00BF0837BD4680BD80B500AF3220AB
:1012100001F0AAFB3020FFF781FF052001F0A4FBBD
:101220003020FFF77BFF012001F09EFB3020FFF70D
:1012300075FF0A2001F098FB2020FFF76FFF0A20BE
:1012400001F092FB2820FFF769FF012001F08CFBE1
:101250000820FFF763FF012001F086FB0120FFF764
:101260005DFF012001F080FB012001F07DFB0520E6
:1012700001F07AFB0620FFF751FF012001F074FB1B
:101280000C20FFF74BFF00BF80BD80B582B000AFE0
:10129000786006E07B685A1C7A601B781846FFF776
:1012A0006DFF7B681B78002BF4D100BF00BF0837AF
:1012B000BD4680BD80B582B000AF01F0F3FA00F00A
:1012C00095F800F0EFF900F0D7F800F003F900F01E
:1012D00051F900F09BF93B4803F004FCFFF795FF40
:1012E0008020FFF71BFF3848FFF7CFFFC020FFF734
:1012F00015FF3648FFF7C9FF4FF47A7001F034FB51
:1013000000F0C2FE0346FB71FB79002B0FD1802059
:10131000FFF704FF2E48FFF7B8FFC020FFF7FEFEDF
:101320002C48FFF7B2FF2C4B01221A701BE08020E3
:10133000FFF7F4FE2448FFF7A8FFC020FFF7EEFEFA
:101340002648FFF7A2FF4FF47A7001F00DFBFFF77C
:1013500045FF01F013F8FFF741FF214803F00CFCB3
:10136000204803F009FC1C4B1B78002B14D00022F2
:101370004FF400511C4801F0ADFD4FF4FA7001F03C
:10138000F3FA01224FF40051174801F0A3FD4FF486
:10139000FA7001F0E9FAE6E700224FF40051124832
:1013A00001F098FD4FF47A6001F0DEFA01224FF46B
:1013B00000510D4801F08EFD4FF47A6001F0D4FA2F
:1013C000D1E700BF500200202083000830830008CE
:1013D000348300084083000828030020508300085D
:1013E00098020020E00200200010014080B590B07B
:1013F00000AF07F1180328220021184603F090FFE0
:101400003B1D00221A605A609A60DA601A6101235B
:10141000BB614FF48033FB6100233B620123BB625D
:1014200002237B634FF48033BB634FF4E013FB6311
:1014300007F11803184602F0FFFE0346002B01D007
:1014400001F03EF80F237B600223BB600023FB60AA
:101450004FF480633B6100237B613B1D02211846F2
:1014600003F06CF90346002B01D001F029F800BF0E
:101470004037BD4680BD000080B500AF124B134A17
:101480001A60114B124A5A600F4B00229A600E4BA1
:101490000022DA600C4B4FF480421A610A4B0022A2
:1014A0005A61094B00229A61074B0022DA61064B10
:1014B00000221A62044801F03FFD0346002B01D0D0
:1014C00000F0FEFF00BF80BDFC0100200054004082
:1014D000801A060080B586B000AF07F1080300222D
:1014E0001A605A609A60DA603B4600221A605A60BD
:1014F0001E4B1F4A1A601D4B47225A601B4B00228D
:101500009A601A4B4FF6FF72DA60184B00221A618C
:10151000164B00225A61154B00229A61134803F0C2
:1015200091FA0346002B01D000F0CAFF4FF480531C
:10153000BB6007F1080319460C4803F077FC03462B
:10154000002B01D000F0BCFF00233B6000237B6038
:101550003B461946054803F049FE0346002B01D0DF
:1015600000F0AEFF00BF1837BD4680BD500200201E
:10157000002C014080B586B000AF07F108030022BF
:101580001A605A609A60DA603B4600221A605A601C
:101590001D4B4FF080421A601B4B8F225A601A4B32
:1015A00000229A60184B40F2CF72DA60164B00228C
:1015B0001A61154B80229A61134803F043FA0346DF
:1015C000002B01D000F07CFF4FF48053BB6007F18B
:1015D000080319460C4803F029FC0346002B01D0F0
:1015E00000F06EFF00233B6000237B603B46194602
:1015F000054803F0FBFD0346002B01D000F060FF1F
:1016000000BF1837BD4680BD9802002080B586B067
:1016100000AF07F1080300221A605A609A60DA608E
:101620003B4600221A605A601C4B1D4A1A601B4B35
:1016300047225A60194B00229A60184B4F22DA60F9
:10164000164B00221A61154B80229A61134803F051
:10165000F9F90346002B01D000F032FF4FF480531C
:10166000BB6007F1080319460C4803F0DFFB034693
:10167000002B01D000F024FF00233B6000237B609F
:101680003B461946054803F0B1FD0346002B01D047
:1016900000F016FF00BF1837BD4680BDE0020020F5
:1016A0000004004080B588B000AF07F110030022AD
:1016B0001A605A609A60DA602D4B9B692C4A43F09D
:1016C000100393612A4B9B6903F01003FB60FB68D6
:1016D000274B9B69264A43F020039361244B9B6967
:1016E00003F02003BB60BB68214B9B69204A43F099
:1016F000040393611E4B9B6903F004037B607B68CA
:101700001B4B9B691A4A43F008039361184B9B6972
:1017100003F008033B603B6800224FF4005115487A
:1017200001F0D8FB00221E21134801F0D3FB4FF437
:1017300000533B6101237B610023BB610223FB61FA
:1017400007F1100319460B4801F040FA1E233B61D4
:1017500001237B610023BB610223FB6107F11003BE
:101760001946054801F032FA00BF2037BD4680BD5A
:10177000001002400010014000080140000000007D
:10178000B0B582B000AF78607B681B68B3F1804F62
:1017900040F0E08300F070FDA74BB3F904309BB23A
:1017A000A3F56853343B9BB21AB2A34B9A80A24B69
:1017B000B3F9043042F20802934203DD9E4B42F239
:1017C00008029A809C4BB3F904309C4A934203DA96
:1017D000994B4DF6F8729A80974BB3F9043018463E
:1017E000FFF75CFA03461846FEF71EFE88A3D3E90E
:1017F0000023FEF79BFF02460B461046194606F0F3
:10180000A3FA85A3D3E90023FEF766FE02460B4642
:1018100010461946FFF738F90346894A1360894B89
:101820001B78002B20D1864B1B684FF03F41184698
:10183000FFF744FC0346002B16D0814B1B684FF08A
:101840007C511846FFF71CFC0346002B0CD07D4B47
:1018500001221A707A4B1B687B4A136001224FF4F5
:1018600000517A4801F036FB00F080FD784BB3F967
:1018700002301846FFF712FA0246764B1B681946EB
:101880001046FFF755F903461846FFF721FC0346BB
:101890001AB26F4B5A806E4BB3F902301846FFF7FD
:1018A000FDF903466C491846FFF74CFA03461A4601
:1018B000654B1B6819461046FFF73CF903461A466C
:1018C000614B1A60624BB3F904301846FFF7E6F932
:1018D0000246624B1B6819461046FFF729F903467A
:1018E0001846FFF7F5FB03461AB2594B9A80564B40
:1018F0001B681846FEF798FD49A3D3E90023FEF7BD
:10190000EBFD02460B4614461D464D4B1B68184620
:10191000FEF78AFD44A3D3E90023FEF7DDFD02466E
:101920000B4620462946FEF721FC02460B46104690
:101930001946FFF7A9F80346434A1360424B1B6858
:10194000474A126811461846FFF7F2F803461A464E
:10195000444B1B6819461046FFF7EAF803461A463F
:10196000414B1A60414B1B6841491846FFF7A6FBE3
:101970000346002B08D13D4B1B683E491846FFF734
:101980007FFB0346002B21D0384B1B681846FEF71F
:101990004BFD27A3D3E90023FEF79EFD02460B462D
:1019A00014461D46304B1B681846FEF73DFD0246A7
:1019B0000B4620462946FEF7D9FB02460B46104649
:1019C0001946FFF761F80346274A13602A4B1B6844
:1019D000254A126811461846FFF7B4F903461A461D
:1019E000264B1B6819461046FFF7A4F803461A4613
:1019F000224B1A60214B1B6821491846FFF75EFBFA
:101A00000346002B3ED01D4B1D4A1A6046E000BF26
:101A1000000000000004C04000000020DCA54C4095
:101A200096438B6CE7FBEF3FFCA9F1D24D62403F40
:101A3000B81E85EB51B88E3F4C030020F8DFFFFF46
:101A4000640300207C030020680300200010014094
:101A50005C0300206C030020FF05023870030020A7
:101A6000800300208C0300208403002090030020CA
:101A700000002041000020C17803002088030020DE
:101A80000000C8436C4B1B686C491846FFF7F8FA16
:101A90000346002B02D0684B684A1A60684B1B68EB
:101AA000684A126811461846FFF74CF903461A4671
:101AB000614B1B6819461046FFF73CF803461C466D
:101AC000604B1B68604A126811461846FFF730F8F1
:101AD00003461A465D4B1B6819461046FFF732F95C
:101AE000034619462046FFF725F803461A46584B89
:101AF0001A60574B1B6857491846FFF7DFFA034631
:101B0000002B03D0524B534A1A600BE0504B1B681A
:101B10004A491846FFF7B4FA0346002B02D04C4B53
:101B2000464A1A60474B1B68474A1360484B1B687C
:101B300049491846FFF7A4FA0346002B0CD0444B42
:101B40001B6846491846FFF7B9FA0346002B03D035
:101B50003F4B4FF000021A60414B1B684149184649
:101B6000FFF7ACFA0346002B0CD13D4B1B683E49F6
:101B70001846FFF785FA0346002B03D13B4B1B7831
:101B8000002B0ED1324B4FF000021A60374B00226F
:101B90001A70294B4FF000021A60354B4FF00002CB
:101BA0001A602B4B1B68334A1360294B1B68324A5F
:101BB0001360324B1B684FF07C511846FFF77EFADA
:101BC0000346002B13D02D4B1B681846FEF72CFC48
:101BD00017A3D3E90023FEF7C7FA02460B461046C7
:101BE0001946FEF751FF0346244A13604CE0234B8D
:101BF0001B684FF03F411846FFF742FA0346002B9F
:101C00003ED01E4B1B681846FEF70EFC08A3D3E916
:101C10000023FEF7ABFA02460B4610461946FEF7C4
:101C200033FF0346154A13602EE000BFAFF3008078
:101C30009A9999999999A93F880300200000C8C3EF
:101C4000000000208403002094030020740300207F
:101C5000900300200000C8430000A0400000A0C086
:101C6000680300200000F0410000F0C17C03002068
:101C700080030020980300209C0300208C03002098
:101C8000A14B4FF000021A609F4B1B684FF0000100
:101C90001846FFF7EBF90346002B39D09B4B1B6826
:101CA0004FF000011846FFF7EBF90346002B12D066
:101CB000974B1B681846FEF7B7FB91A3D3E90023A7
:101CC000FEF754FA02460B4610461946FEF7DCFEB4
:101CD00003468F4A13608D4B1B684FF00001184676
:101CE000FFF7ECF90346002B12D0894B1B6818460E
:101CF000FEF79AFB82A3D3E90023FEF735FA0246EA
:101D00000B4610461946FEF7BFFE0346804A136095
:101D1000804B1B684FF000011846FFF7CFF90346D0
:101D2000002B1AD07B4B1B687B491846FEF702FF3D
:101D3000034619464FF07E50FFF7B8F8034677493F
:101D40001846FEF7FFFF034619467548FEF7F0FEFA
:101D500003461A466F4B1A6023E06E4B1B684FF028
:101D600000011846FFF78CF90346002B19D0694B88
:101D70001B6869491846FEF7DBFE034619464FF01B
:101D80007E50FFF793F8034664491846FEF7DAFFE2
:101D9000034619466348FEF7CBFE03461A465D4BE1
:101DA0001A60614B1B684FF000011846FFF786F977
:101DB0000346002B1AD05C4B1B6857491846FEF7A8
:101DC000B9FE034619464FF07E50FFF76FF8034601
:101DD00052491846FEF7B6FF034619465048FEF72B
:101DE000A7FE03461A46504B1A6023E04E4B1B6871
:101DF0004FF000011846FFF743F90346002B19D0B6
:101E0000494B1B6844491846FEF792FE03461946A3
:101E10004FF07E50FFF74AF8034640491846FEF758
:101E200091FF034619463F48FEF782FE03461A46D5
:101E30003D4B1A60374B1B684FF000011846FFF707
:101E40003DF90346002B0DD0324B1B68194637482D
:101E5000FEF76EFE03461846FFF73AF90346344A8A
:101E600013601AE02B4B1B684FF000011846FFF778
:101E700007F90346002B0DD0264B1B6819462D4849
:101E8000FEF756FE03461846FFF722F90346284A96
:101E9000136002E0264B00221A60234B1B684FF0B0
:101EA00000011846FFF70AF90346002B0DD01E4B20
:101EB0001B6819461D48FEF73BFE03461846FFF710
:101EC00007F903461C4A13603BE0174B1B684FF0B1
:101ED00000011846FFF7D4F80346002B2ED0124B12
:101EE0001B6819461348FEF723FE03461846FFF702
:101EF000EFF80346104A136023E000BFAFF3008001
:101F0000FA7E6ABC7493583F8C0300209003002033
:101F100080030020980300200000104100E0AB4542
:101F20000080CA430080CAC39C0300200000C8434D
:101F3000A00300200000C8C3A4030020484B0022D7
:101F40001A60484B1B68484A1360454B1B68474A58
:101F5000136080E07B681B68454A93427BD1454B08
:101F60001B680133434A1360424B1B68424A1268A4
:101F700093421DD93D4B1B683F4A13603D4B0022E5
:101F80001A603D4B1B68002B0BDA3C4B1B693B4A2C
:101F900043F002031361384B1B685B42364A1360FF
:101FA0001BE0364B1B69354A43F40033136114E0E0
:101FB000304B1B68012B06D1304B1B692F4A43F075
:101FC0000403136109E02B4B1B68022B05D12B4B3B
:101FD0001B692A4A43F480231361294B1B68013390
:101FE000274A1360264B1B68264A126893421DD964
:101FF0001D4B1B68234A1360214B00221A60214BA2
:102000001B68002B0BDA1D4B1B691C4A43F4002391
:1020100013611C4B1B685B421A4A13601BE0174B91
:102020001B69164A43F00803136114E0144B1B6844
:10203000012B06D1114B1B69104A43F010031361A9
:1020400009E00F4B1B68022B05D10C4B1B690B4A97
:1020500043F48013136100BF0837BD46B0BD00BF15
:10206000A4030020A0030020B8030020BC0300202C
:1020700000040040B4030020AC030020000801402D
:10208000B0030020A803002080B586B004AF4FF451
:102090007A73029301230193FB1C009301237522A1
:1020A000D0213A4801F084FAFB78682B1ED0002337
:1020B0007B6016E000224FF40051354800F00AFF23
:1020C0004FF47A7000F050FC01224FF40051304878
:1020D00000F000FF4FF47A7000F046FC7B6801339B
:1020E0007B607B68022BE5DD00234BE00023FB7067
:1020F0004FF47A73029301230193FB1C0093012395
:102100006B22D021214801F059F90723FB704FF4CD
:102110007A73029301230193FB1C0093012319227C
:10212000D0211A4801F04AF90023FB704FF47A736A
:10213000029301230193FB1C009301231B22D02156
:10214000124801F03BF90023FB704FF47A730293BD
:1021500001230193FB1C009301231C22D0210B4877
:1021600001F02CF90323FB704FF47A7302930123DF
:102170000193FB1C009301231A22D021034801F094
:102180001DF9012318460837BD4680BDFC0100201B
:102190000010014080B584B004AF4FF47A7302930D
:1021A00006230193154B009301233B22D0211448B1
:1021B00001F0FEF9114B1B781B021AB20F4B5B7832
:1021C0001BB213431AB20F4B1A800C4B9B781B02A5
:1021D0001AB20A4BDB781BB213431AB2094B5A806E
:1021E000064B1B791B021AB2044B5B791BB21343DB
:1021F0001AB2044B9A8000BFBD4680BD4403002044
:10220000FC0100204C03002080B500AF184BB3F94F
:1022100000301846FEF742FD03464FF08D41184648
:10222000FEF744FE03461A46124B1A60104BB3F9F0
:1022300002301846FEF732FD03464FF08D41184636
:10224000FEF734FE03461A460A4B5A60084BB3F9B0
:1022500004301846FEF722FD03464FF08D41184624
:10226000FEF724FE03461A46024B9A6000BF80BD6B
:102270004C0300202C03002080B500AFFFF78AFF3D
:10228000FFF7C2FF00BF80BD80B584B004AF4FF43C
:102290007A73029306230193154B00930123432283
:1022A000D021144801F084F9114B1B781B021AB29B
:1022B0000F4B5B781BB213431AB20F4B1A800C4BB7
:1022C0009B781B021AB20A4BDB781BB213431AB27B
:1022D000094B5A80064B1B791B021AB2044B5B79DF
:1022E0001BB213431AB2044B9A8000BFBD4680BD97
:1022F00054030020FC0100205C03002080B500AFE7
:10230000174BB3F900301846FEF7C8FC03461549D1
:102310001846FEF7CBFD03461A46134B1A60104BC6
:10232000B3F902301846FEF7B9FC03460D491846CA
:10233000FEF7BCFD03461A460B4B5A60084BB3F937
:1023400004301846FEF7AAFC034606491846FEF775
:10235000ADFD03461A46044B9A6000BF80BD00BF26
:102360005C030020000003433803002080B500AF69
:10237000FFF78AFFFFF7C2FF00BF80BD80B582B0C4
:1023800000AF00224FF40051394800F0A3FD0023B4
:102390007B608020FEF7C2FE3648FEF776FFC02045
:1023A000FEF7BCFE00237B603FE07A68324B83FB84
:1023B00002135911D317CB1A642101FB03F3D31A6B
:1023C000002B07D12D48FEF760FF4FF4005128483D
:1023D00000F098FDFFF7CAFF294BB3F90430184607
:1023E000FEF75CFC0246274B1B6819461046FEF7B9
:1023F000A1FB03461A46234B1A60214BB3F9023066
:102400001846FEF74BFC02461F4B1B681946104648
:10241000FEF790FB03461A461B4B1A6040F6B83095
:1024200000F036F87B6801337B607B68B3F57A7F18
:10243000BBDB154B1B6815491846FEF737FD0346F5
:102440001A46114B1A600F4B1B6810491846FEF7CD
:102450002DFD03461A460B4B1A6000224FF4005123
:10246000034800F037FD00BF0837BD4680BD00BF00
:1024700000100140588300081F85EB516C83000851
:102480005C030020700300206C03002000007A44ED
:1024900080B483B000AF0346FB80084B1B6800226A
:1024A0005A6200BF054B1B685A6AFB889A42F9D3EF
:1024B00000BF00BF0C37BD4680BC704750020020F3
:1024C00080B400AF72B600BFFEE7000080B485B0F4
:1024D00000AF154B9B69144A43F001039361124B03
:1024E0009B6903F00103BB60BB680F4BDB690E4ABD
:1024F00043F08053D3610C4BDB6903F080537B6066
:102500007B680A4B5B68FB60FB6823F0E063FB6061
:10251000FB6843F00073FB60044AFB68536000BF34
:102520001437BD4680BC70470010024000000140D7
:1025300080B588B000AF786007F1100300221A6000
:102540005A609A60DA607B681B68154A934223D10F
:10255000144B9B69134A43F008039361114B9B6929
:1025600003F00803FB60FB68C0233B6112237B611F
:102570000323FB6107F1100319460B4800F026FB0B
:10258000084BDB69074A43F40013D361054BDB6951
:1025900003F40013BB60BB6800BF2037BD4680BD9D
:1025A0000054004000100240000C014080B586B08D
:1025B00000AF78607B681B68234A93420CD1234BA1
:1025C0009B69224A43F400639361204B9B6903F4A7
:1025D00000637B617B6932E07B681B68B3F1804FED
:1025E00014D11A4BDB69194A43F00103D361174B2D
:1025F000DB6903F001033B613B69002200211C20E1
:1026000000F0ADFA1C2000F0C6FA18E07B681B68E9
:102610000F4A934213D10D4BDB690C4A43F002037E
:10262000D3610A4BDB6903F00203FB60FB68002205
:1026300000211D2000F093FA1D2000F0ACFA00BF2D
:102640001837BD4680BD00BF002C0140001002407D
:102650000004004080B400AFFEE780B400AFFEE7A6
:1026600080B400AFFEE780B400AFFEE780B400AFF7
:10267000FEE780B400AF00BFBD4680BC704780B4A9
:1026800000AF00BFBD4680BC704780B400AF00BF44
:10269000BD4680BC704780B500AF00F049F900BF6F
:1026A00080BD000080B500AF024802F0B7FA00BF5D
:1026B00080BD00BF9802002080B500AF024802F044
:1026C000ADFA00BF80BD00BFE002002080B400AFC3
:1026D00001231846BD4680BC704780B582B000AF6C
:1026E0007860396002F0F2FD034616221A604FF05E
:1026F000FF3318460837BD4680BD80B582B000AFB5
:1027000078604FF0FF317868FFF7E7FFFEE780B5AC
:1027100086B000AFF860B9607A6000237B610AE0A0
:10272000AFF300800146BB685A1CBA60CAB21A7087
:102730007B6901337B617A697B689A42F0DB7B6855
:1027400018461837BD4680BD80B586B000AFF8602A
:10275000B9607A6000237B6109E0BB685A1CBA60EB
:102760001B781846AFF300807B6901337B617A697F
:102770007B689A42F1DB7B6818461837BD4680BDFE
:1027800080B483B000AF78604FF0FF3318460C3749
:10279000BD4680BC704780B483B000AF78603960BC
:1027A0003B684FF400525A60002318460C37BD4670
:1027B00080BC704780B483B000AF786001231846B6
:1027C0000C37BD4680BC704780B485B000AFF86060
:1027D000B9607A60002318461437BD4680BC704744
:1027E00080B586B000AF7860144A154BD31A7B6170
:1027F0007B693B61134B1B68002B02D1114B124AC2
:102800001A60104B1A687B6813443A699A4207D2DF
:1028100002F05CFD03460C221A604FF0FF3309E022
:10282000084B1B68FB60074B1A687B681344054A1A
:102830001360FB6818461837BD4680BD0050002065
:1028400000040000C0030020D803002080B400AFC3
:1028500000BFBD4680BC70470C480D490D4A00239F
:1028600002E0D458C4500433C4188C42F9D30A4A45
:102870000A4C002301E013600432A242FBD3FFF7AD
:10288000E5FF02F029FDFEF715FD7047000000206E
:10289000E00100207C870008E0010020D803002030
:1028A000FEE7000080B500AF084B1B68074A43F005
:1028B00010031360032000F047F90F2000F008F820
:1028C000FFF704FE0023184680BD00BF0020024031
:1028D00080B582B000AF7860124B1A68124B1B783B
:1028E00019464FF47A73B3FBF1F3B2FBF3F31846D6
:1028F00000F05FF90346002B01D001230EE07B6856
:102900000F2B0AD8002279684FF0FF3000F027F92A
:10291000064A7B681360002300E00123184608374D
:10292000BD4680BD040000200C00002008000020EF
:1029300080B400AF054B1B781A46054B1B68134447
:10294000034A136000BFBD4680BC70470C000020E6
:10295000C403002080B400AF024B1B681846BD467C
:1029600080BC7047C403002080B584B000AF78609D
:10297000FFF7F0FFB8607B68FB60FB68B3F1FF3FD7
:1029800005D00A4B1B781A46FB681344FB6000BF56
:10299000FFF7E0FF0246BB68D31AFA689A42F7D8FD
:1029A00000BF00BF1037BD4680BD00BF0C00002037
:1029B00080B485B000AF78607B6803F00703FB60EC
:1029C0000C4BDB68BB60BA684FF6FF031340BB607B
:1029D000FB681A02BB68134343F0BF6343F4003340
:1029E000BB60044ABB68D36000BF1437BD4680BCDF
:1029F000704700BF00ED00E080B400AF044BDB681F
:102A00001B0A03F007031846BD4680BC704700BF91
:102A100000ED00E080B483B000AF0346FB7197F98E
:102A20000730002B0BDBFB7903F01F02064997F9F7
:102A300007305B09012000FA02F241F8232000BFB1
:102A40000C37BD4680BC704700E100E080B483B025
:102A500000AF03463960FB7197F90730002B0ADBA2
:102A60003B68DAB20C4997F907301201D2B20B4435
:102A700083F800230AE03B68DAB20849FB7903F0E7
:102A80000F03043B1201D2B20B441A7600BF0C377D
:102A9000BD4680BC704700BF00E100E000ED00E0F3
:102AA00080B489B000AFF860B9607A60FB6803F069
:102AB0000703FB61FB69C3F10703042B28BF042351
:102AC000BB61FB690433062B02D9FB69033B00E0C1
:102AD00000237B614FF0FF32BB6902FA03F3DA4354
:102AE000BB681A407B699A404FF0FF317B6901FA5D
:102AF00003F3D9437B680B40134318462437BD4684
:102B000080BC704780B582B000AF78607B68013BC5
:102B1000B3F1807F01D301230FE00A4A7B68013BB8
:102B200053600F214FF0FF30FFF790FF054B00225D
:102B30009A60044B07221A60002318460837BD46E6
:102B400080BD00BF10E000E080B582B000AF7860CB
:102B50007868FFF72DFF00BF0837BD4680BD80B500
:102B600086B000AF0346B9607A60FB7300237B61D7
:102B7000FFF742FF78617A68B9687869FFF790FFDC
:102B8000024697F90F3011461846FFF75FFF00BF66
:102B90001837BD4680BD80B582B000AF0346FB71DB
:102BA00097F907301846FFF735FF00BF0837BD46D5
:102BB00080BD80B582B000AF78607868FFF7A2FF73
:102BC000034618460837BD4680BD000080B48BB070
:102BD00000AF7860396000237B6200233B6269E1CB
:102BE00001227B6A02FA03F3FB613B681B68FA6906
:102BF0001340BB61BA69FB699A4240F058813B6857
:102C00005B689A4A93425ED0984A934275D8984A34
:102C1000934258D0964A93426FD8964A934252D0E4
:102C2000944A934269D8944A93424CD0924A934230
:102C300063D8924A934246D0904A93425DD8122B71
:102C40002AD8122B59D801A252F823F0C72C000819
:102C5000A12C0008B32C0008F52C0008FB2C000860
:102C6000FB2C0008FB2C0008FB2C0008FB2C0008A8
:102C7000FB2C0008FB2C0008FB2C0008FB2C000898
:102C8000FB2C0008FB2C0008FB2C0008FB2C000888
:102C9000A92C0008BD2C0008794A934213D02CE0DF
:102CA0003B68DB683B6229E03B68DB6804333B62DE
:102CB00024E03B68DB6808333B621FE03B68DB686D
:102CC0000C333B621AE03B689B68002B02D1042363
:102CD0003B6213E03B689B68012B05D108233B62F4
:102CE0007B68FA691A6109E008233B627B68FA692C
:102CF0005A6103E000233B6200E000BFBB69FF2B89
:102D000001D87B6801E07B6804337B61BB69FF2BE2
:102D100002D87B6A9B0002E07B6A083B9B003B6118
:102D20007B691A680F213B6901FA03F3DB431A4000
:102D3000396A3B6901FA03F31A437B691A603B68FD
:102D40005B6803F08053002B00F0B1804D4B9B6912
:102D50004C4A43F0010393614A4B9B6903F0010322
:102D6000BB60BB68484A7B6A9B08023352F8233039
:102D7000FB607B6A03F003039B000F2202FA03F35C
:102D8000DB43FA681340FB607B68404A934213D0F0
:102D90007B683F4A93420DD07B683E4A934207D0FE
:102DA0007B683D4A934201D1032306E0042304E0FB
:102DB000022302E0012300E000237A6A02F003020A
:102DC00092009340FA681343FB602F497B6A9B088B
:102DD0000233FA6841F823203B685B6803F48033D0
:102DE000002B06D02D4B1A682C49BB6913430B608E
:102DF00006E02A4B1A68BB69DB43284913400B6085
:102E00003B685B6803F40033002B06D0234B5A6801
:102E10002249BB6913434B6006E0204B5A68BB69EB
:102E2000DB431E4913404B603B685B6803F480132F
:102E3000002B06D0194B9A681849BB6913438B6065
:102E400006E0164B9A68BB69DB43144913408B605C
:102E50003B685B6803F40013002B21D00F4BDA684A
:102E60000E49BB691343CB6021E000BF0000321064
:102E7000000031100000221000002110000012108C
:102E80000000111000100240000001400008014045
:102E9000000C0140001001400014014000040140FA
:102EA0000B4BDA68BB69DB4309491340CB607B6A93
:102EB00001337B623B681A687B6A22FA03F3002BBA
:102EC0007FF48EAE00BF00BF2C37BD4680BC70477C
:102ED0000004014080B483B000AF78600B467B8073
:102EE00013467B707B78002B03D07A887B681A614D
:102EF00003E07B881A047B681A6100BF0C37BD466B
:102F000080BC704780B485B000AF78600B467B8092
:102F10007B68DB68FB607A88FB6813401A04FB68F7
:102F2000D9437B880B401A437B681A6100BF143772
:102F3000BD4680BC7047000080B584B000AF7860AB
:102F40007B68002B01D101232BE17B6893F83D3096
:102F5000DBB2002B06D17B68002283F83C20786826
:102F6000FFF7E6FA7B68242283F83D207B681B6824
:102F70001A687B681B6822F001021A607B681B6874
:102F80001A687B681B6842F400421A607B681B6801
:102F90001A687B681B6822F400421A6001F020FD69
:102FA000F8607B685B68814A934207D8FB68804A77
:102FB000934294BF01230023DBB206E0FB687D4A05
:102FC000934294BF01230023DBB2002B01D00123E5
:102FD000E7E0FB68784AA2FB03239B0CBB607B689D
:102FE0001B685B6823F03F017B681B68BA680A4373
:102FF0005A607B681B681B6A23F03F017B685B6833
:103000006A4A934202D8BB68013309E0BB684FF4B7
:10301000967202FB03F3694AA2FB03239B09013367
:103020007A6812680B4313627B681B68DB6923F4C0
:103030004F4222F0FF027B685B685C498B4219D8E3
:10304000FB68591E7B685B685B00B1FBF3F3591C9E
:1030500040F6FC730B40002B0AD0FB68591E7B68BE
:103060005B685B00B1FBF3F30133C3F30B0351E087
:1030700004234FE07B689B68002B11D1FB68581E2E
:103080007B6859680B465B000B44B0FBF3F30133DC
:10309000C3F30B03002B0CBF01230023DBB212E0B0
:1030A000FB68581E7B6859680B469B000B449900CF
:1030B0000B44B0FBF3F30133C3F30B03002B0CBF42
:1030C00001230023DBB2002B01D0012322E07B6827
:1030D0009B68002B0ED1FB68581E7B6859680B4615
:1030E0005B000B44B0FBF3F30133C3F30B0343F476
:1030F00000430FE0FB68581E7B6859680B469B0035
:103100000B4499000B44B0FBF3F30133C3F30B03FF
:1031100043F44043796809681343CB617B681B68BB
:103120001B6823F0C0017B68DA697B681B6A1A435D
:103130007B681B680A431A607B681B689B6823F4E2
:10314000034323F0FF037A6811697A68D268114358
:103150007A6812680B4393607B681B68DB6823F016
:10316000FF017B685A697B689B691A437B681B680F
:103170000A43DA607B681B681A687B681B6842F048
:1031800001021A607B6800221A647B68202283F89F
:103190003D207B6800221A637B68002283F83E2072
:1031A000002318461037BD4680BD00BFA086010031
:1031B0007F841E00FF083D0083DE1B43D34D621059
:1031C00080B588B002AFF8607A601A460B467B8102
:1031D00013463B81FFF7BEFB7861FB6893F83D30F7
:1031E000DBB2202B40F0E0807B69009319230122A1
:1031F0007049F86800F044FE0346002B01D002231A
:10320000D3E0FB6893F83C30012B01D10223CCE0E2
:10321000FB68012283F83C20FB681B681B6803F0F5
:103220000103012B07D0FB681B681A68FB681B6849
:1032300042F001021A60FB681B681A68FB681B6891
:1032400022F400621A60FB68212283F83D20FB68AB
:10325000102283F83E20FB6800221A64FB687A681B
:103260005A62FB683A895A85FB685B8D9AB2FB68A3
:103270001A85FB68504ADA6279897B693A6AF8688C
:1032800000F0FEFB0346002B01D001238DE000235C
:103290003B61FB681B685B693B61FB681B689B6962
:1032A0003B613B6966E07A69396AF86800F0BEFE06
:1032B0000346002B0DD0FB681B6C042B07D1FB6869
:1032C0001B681A68FB681B6842F400721A600123CD
:1032D0006BE0FB685B6A1A78FB681B681A61FB6825
:1032E0005B6A5A1CFB685A62FB685B8D9BB2013BB0
:1032F0009AB2FB685A85FB681B8D013B9AB2FB684A
:103300001A85FB681B685B6903F00403042B1BD15F
:10331000FB681B8D002B17D0FB685B6A1A78FB6873
:103320001B681A61FB685B6A5A1CFB685A62FB687F
:103330005B8D9BB2013B9AB2FB685A85FB681B8D83
:10334000013B9AB2FB681A857A69396AF86800F01D
:10335000AEFE0346002B0DD0FB681B6C042B07D17F
:10336000FB681B681A68FB681B6842F400721A60ED
:1033700001231AE0FB681B8D002B94D1FB681B68AE
:103380001A68FB681B6842F400721A60FB6820220E
:1033900083F83D20FB68002283F83E20FB68002272
:1033A00083F83C20002300E0022318461837BD466E
:1033B00080BD00BF020010000000FFFF80B588B094
:1033C00002AFF860084611461A4603467B810B4659
:1033D0003B811346FB80FFF7BDFA7861FB6893F8E9
:1033E0003D30DBB2202B40F0D9807B69009319235C
:1033F00001226D49F86800F043FD0346002B01D01F
:103400000223CCE0FB6893F83C30012B01D102236E
:10341000C5E0FB68012283F83C20FB681B681B6841
:1034200003F00103012B07D0FB681B681A68FB68D7
:103430001B6842F001021A60FB681B681A68FB688F
:103440001B6822F400621A60FB68212283F83D2089
:10345000FB68402283F83E20FB6800221A64FB6868
:103460003A6A5A62FB68BA8C5A85FB685B8D9AB2DD
:10347000FB681A85FB684D4ADA62F8883A897989CF
:103480007B690193BB6A00930346F86800F07AFBFE
:103490000346002B52D0012381E07A69B96AF868AB
:1034A00000F0C4FD0346002B0DD0FB681B6C042B01
:1034B00007D1FB681B681A68FB681B6842F400723E
:1034C0001A6001236BE0FB685B6A1A78FB681B6873
:1034D0001A61FB685B6A5A1CFB685A62FB681B8DA9
:1034E000013B9AB2FB681A85FB685B8D9BB2013B7E
:1034F0009AB2FB685A85FB681B685B6903F004039A
:10350000042B1BD1FB681B8D002B17D0FB685B6A5B
:103510001A78FB681B681A61FB685B6A5A1CFB68B7
:103520005A62FB681B8D013B9AB2FB681A85FB68E7
:103530005B8D9BB2013B9AB2FB685A85FB681B8D81
:10354000002BAAD17A69B96AF86800F0B0FD034689
:10355000002B0DD0FB681B6C042B07D1FB681B688C
:103560001A68FB681B6842F400721A60012316E0B7
:10357000FB681B681A68FB681B6842F400721A60DB
:10358000FB68202283F83D20FB68002283F83E2060
:10359000FB68002283F83C20002300E00223184649
:1035A0001837BD4680BD00BF020010000000FFFFBD
:1035B00080B58CB002AFF860084611461A46034643
:1035C0007B810B463B811346FB8000233B62FFF768
:1035D000C1F97862FB6893F83D30DBB2202B40F0F4
:1035E00044827B6A0093192301228249F86800F023
:1035F00047FC0346002B01D0022337E2FB6893F817
:103600003C30012B01D1022330E2FB68012283F818
:103610003C20FB681B681B6803F00103012B07D0EB
:10362000FB681B681A68FB681B6842F001021A609D
:10363000FB681B681A68FB681B6822F400621A604A
:10364000FB68222283F83D20FB68402283F83E205D
:10365000FB6800221A64FB683A6B5A62FB68BA8EF8
:103660005A85FB685B8D9AB2FB681A85FB68624AD3
:10367000DA62F8883A8979897B6A0193BB6B009397
:103680000346F86800F014FB0346002B01D0012329
:10369000ECE1FB681B8D002B13D10023FB61FB6861
:1036A0001B685B69FB61FB681B689B69FB61FB69CD
:1036B000FB681B681A68FB681B6842F400721A609A
:1036C000C0E1FB681B8D012B1ED1FB681B681A68CB
:1036D000FB681B6822F480621A6072B600BF002388
:1036E000BB61FB681B685B69BB61FB681B689B690E
:1036F000BB61BB69FB681B681A68FB681B6842F406
:1037000000721A6062B635E0FB681B8D022B1ED179
:10371000FB681B681A68FB681B6842F400621A6049
:1037200072B600BF00237B61FB681B685B697B612D
:10373000FB681B689B697B617B69FB681B681A6877
:10374000FB681B6822F480621A6062B612E0FB68B4
:103750001B681A68FB681B6842F480621A600023C9
:103760003B61FB681B685B693B61FB681B689B698D
:103770003B613B6966E1FB681B8D032B00F21F81F7
:10378000FB681B8D012B23D17A6AB96BF86800F0B6
:10379000CFFC0346002B01D0012367E1FB681B68C7
:1037A0001A69FB685B6AD2B21A70FB685B6A5A1CC2
:1037B000FB685A62FB681B8D013B9AB2FB681A8555
:1037C000FB685B8D9BB2013B9AB2FB685A8539E17D
:1037D000FB681B8D022B52D17B6A0093BB6B0022CE
:1037E0000649F86800F04CFB0346002B08D0012383
:1037F0003CE100BF020010000000FFFF04000100D8
:1038000072B600BFFB681B681A68FB681B6842F44D
:1038100000721A60FB681B681A69FB685B6AD2B2A7
:103820001A70FB685B6A5A1CFB685A62FB681B8D46
:10383000013B9AB2FB681A85FB685B8D9BB2013B2A
:103840009AB2FB685A8562B600BFFB681B681A69AA
:10385000FB685B6AD2B21A70FB685B6A5A1CFB6831
:103860005A62FB681B8D013B9AB2FB681A85FB68A4
:103870005B8D9BB2013B9AB2FB685A85E2E07B6AA2
:103880000093BB6B00227B49F86800F0F9FA03460D
:10389000002B01D00123E9E0FB681B681A68FB6874
:1038A0001B6822F480621A6072B600BFFB681B6856
:1038B0001A69FB685B6AD2B21A70FB685B6A5A1CB1
:1038C000FB685A62FB681B8D013B9AB2FB681A8544
:1038D000FB685B8D9BB2013B9AB2FB685A85664BD5
:1038E0001B68DB08654AA2FB03231A0A13469B00E8
:1038F0001344DA00D31A3B623B6A013B3B623B6AEA
:10390000002B18D1FB6800221A63FB68202283F881
:103910003D20FB68002283F83E20FB681B6C43F0CF
:103920002002FB681A6462B600BFFB68002283F8BD
:103930003C2001239AE0FB681B685B6903F00403E9
:10394000042BD9D1FB681B681A68FB681B6842F41A
:1039500000721A60FB681B681A69FB685B6AD2B266
:103960001A70FB685B6A5A1CFB685A62FB681B8D05
:10397000013B9AB2FB681A85FB685B8D9BB2013BE9
:103980009AB2FB685A8562B600BFFB681B681A6969
:10399000FB685B6AD2B21A70FB685B6A5A1CFB68F0
:1039A0005A62FB681B8D013B9AB2FB681A85FB6863
:1039B0005B8D9BB2013B9AB2FB685A8542E07A6A02
:1039C000B96BF86800F0B4FB0346002B01D001236B
:1039D0004CE0FB681B681A69FB685B6AD2B21A701C
:1039E000FB685B6A5A1CFB685A62FB681B8D013BD3
:1039F0009AB2FB681A85FB685B8D9BB2013B9AB259
:103A0000FB685A85FB681B685B6903F00403042BA1
:103A100018D1FB681B681A69FB685B6AD2B21A701E
:103A2000FB685B6A5A1CFB685A62FB681B8D013B92
:103A30009AB2FB681A85FB685B8D9BB2013B9AB218
:103A4000FB685A85FB681B8D002B7FF494AEFB68E6
:103A5000202283F83D20FB68002283F83E20FB688B
:103A6000002283F83C20002300E002231846283778
:103A7000BD4680BD040001000400002089B5F81493
:103A800080B588B002AFF8607A603B600B467B81FE
:103A9000FB68DB6A7B617B69082B06D07B69012BA5
:103AA00003D07B6913F5803F08D1FB681B681A6857
:103AB000FB681B6842F480721A600BE0FB681B6BAA
:103AC000122B07D1FB681B681A68FB681B6842F45D
:103AD00080721A603B6800937B6800224FF00111EE
:103AE000F86800F0CDF90346002B0DD0FB681B6889
:103AF0001B6803F48073B3F5807F03D1FB684FF438
:103B000000721A64032335E0FB681B69B3F5804F2C
:103B100008D17B89DBB21A46FB681B6802F0FE0203
:103B20001A611BE07B89DB11DBB203F00603DBB219
:103B300063F00F03DAB2FB681B681A613B687A68AE
:103B40000E49F86800F0F3F90346002B01D0012379
:103B500010E07B89DAB2FB681B681A613B687A68FF
:103B60000749F86800F0E3F90346002B01D0012370
:103B700000E0002318461837BD4680BD080001004C
:103B80000200010080B588B002AFF8600846114617
:103B90001A4603467B810B463B811346FB80FB683C
:103BA0001B681A68FB681B6842F480721A607B6AA3
:103BB00000933B6A00224FF00111F86800F060F9B1
:103BC0000346002B0DD0FB681B681B6803F4807351
:103BD000B3F5807F03D1FB684FF400721A640323AE
:103BE0005FE07B89DBB21A46FB681B6802F0FE02CD
:103BF0001A617B6A3A6A2D49F86800F098F9034621
:103C0000002B01D001234CE000237B61FB681B6883
:103C10005B697B61FB681B689B697B617B697A6A76
:103C2000396AF86800F002FA0346002B0DD0FB68F1
:103C30001B6C042B07D1FB681B681A68FB681B68A8
:103C400042F400721A6001232BE0FB88012B05D19E
:103C50003B89DAB2FB681B681A6121E03B891B0AC9
:103C60009BB2DAB2FB681B681A617A6A396AF86833
:103C700000F0DCF90346002B0DD0FB681B6C042B15
:103C800007D1FB681B681A68FB681B6842F4007266
:103C90001A60012305E03B89DAB2FB681B681A61F0
:103CA000002318461837BD4680BD00BF0200010042
:103CB00080B588B002AFF860084611461A46034640
:103CC0007B810B463B811346FB80FB681B681A68AF
:103CD000FB681B6842F480621A60FB681B681A6804
:103CE000FB681B6842F480721A607B6A00933B6A2F
:103CF00000224FF00111F86800F0C2F80346002BD3
:103D00000DD0FB681B681B6803F48073B3F5807FDC
:103D100003D1FB684FF400721A640323AAE07B8985
:103D2000DBB21A46FB681B6802F0FE021A617B6A6E
:103D30003A6A5249F86800F0FAF80346002B01D0BD
:103D4000012397E000237B61FB681B685B697B6153
:103D5000FB681B689B697B617B697A6A396AF868D2
:103D600000F064F90346002B0DD0FB681B6C042B9C
:103D700007D1FB681B681A68FB681B6842F4007275
:103D80001A60012376E0FB88012B05D13B89DAB26A
:103D9000FB681B681A6121E03B891B0A9BB2DAB2FF
:103DA000FB681B681A617A6A396AF86800F03EF9A4
:103DB0000346002B0DD0FB681B6C042B07D1FB685E
:103DC0001B681A68FB681B6842F400721A600123C2
:103DD00050E03B89DAB2FB681B681A617A6A396A7B
:103DE000F86800F023F90346002B0DD0FB681B6C2C
:103DF000042B07D1FB681B681A68FB681B6842F438
:103E000000721A60012335E0FB681B681A68FB68C2
:103E10001B6842F480721A607B6A00933B6A00223E
:103E20004FF00111F86800F02BF80346002B0DD07D
:103E3000FB681B681B6803F48073B3F5807F03D1B4
:103E4000FB684FF400721A64032313E07B89DBB232
:103E500043F00103DAB2FB681B681A617B6A3A6AB5
:103E60000649F86800F063F80346002B01D00123EF
:103E700000E0002318461837BD4680BD020001004F
:103E800080B584B000AFF860B9603B601346FB7149
:103E900025E03B68B3F1FF3F21D0FEF75BFD024612
:103EA000BB69D31A3A689A4202D33B68002B16D1F9
:103EB000FB6800221A63FB68202283F83D20FB6820
:103EC000002283F83E20FB681B6C43F02002FB6855
:103ED0001A64FB68002283F83C20012323E0BB68BE
:103EE0001B0CDBB2012B0DD1FB681B685B69DA434D
:103EF000BB6813409BB2002B0CBF01230023DBB235
:103F00001A460CE0FB681B689B69DA43BB681340E8
:103F10009BB2002B0CBF01230023DBB21A46FB79B6
:103F20009A42B6D0002318461037BD4680BD80B5F2
:103F300084B000AFF860B9607A603B6051E0FB6824
:103F40001B685B6903F48063B3F5806F23D1FB6862
:103F50001B681A68FB681B6842F400721A60FB68F1
:103F60001B686FF480625A61FB6800221A63FB6869
:103F7000202283F83D20FB68002283F83E20FB6866
:103F80001B6C43F00402FB681A64FB68002283F890
:103F90003C20012346E07B68B3F1FF3F21D0FEF7D0
:103FA000D9FC02463B68D31A7A689A4202D37B68EE
:103FB000002B16D1FB6800221A63FB68202283F8CD
:103FC0003D20FB68002283F83E20FB681B6C43F019
:103FD0002002FB681A64FB68002283F83C2001235E
:103FE00020E0BB681B0CDBB2012B0CD1FB681B680B
:103FF0005B69DA43BB6813409BB2002B14BF0123FB
:104000000023DBB20BE0FB681B689B69DA43BB68EB
:1040100013409BB2002B14BF01230023DBB2002B03
:104020008DD1002318461037BD4680BD80B584B0C1
:1040300000AFF860B9607A602DE0F86800F0CEF863
:104040000346002B01D001232DE0BB68B3F1FF3FF5
:1040500021D0FEF77FFC02467B68D31ABA689A42E9
:1040600002D3BB68002B16D1FB6800221A63FB68E1
:10407000202283F83D20FB68002283F83E20FB6865
:104080001B6C43F02002FB681A64FB68002283F873
:104090003C20012307E0FB681B685B6903F0800399
:1040A000802BCAD1002318461037BD4680BD80B58D
:1040B00084B000AFF860B9607A602DE0F86800F075
:1040C0008DF80346002B01D001232DE0BB68B3F12E
:1040D000FF3F21D0FEF73EFC02467B68D31ABA6848
:1040E0009A4202D3BB68002B16D1FB6800221A63E8
:1040F000FB68202283F83D20FB68002283F83E20E5
:10410000FB681B6C43F02002FB681A64FB6800220A
:1041100083F83C20012307E0FB681B685B6903F020
:104120000403042BCAD1002318461037BD4680BDB6
:1041300080B584B000AFF860B9607A6042E0FB6897
:104140001B685B6903F01003102B19D1FB681B6817
:104150006FF010025A61FB6800221A63FB6820228C
:1041600083F83D20FB68002283F83E20FB681A6C30
:10417000FB681A64FB68002283F83C20012329E0D5
:10418000FEF7E8FB02467B68D31ABA689A4202D36C
:10419000BB68002B16D1FB6800221A63FB68202243
:1041A00083F83D20FB68002283F83E20FB681B6CEF
:1041B00043F02002FB681A64FB68002283F83C206D
:1041C000012307E0FB681B685B6903F04003402B99
:1041D000B5D1002318461037BD4680BD80B483B0EA
:1041E00000AF78607B681B685B6903F48063B3F59C
:1041F000806F1BD17B681B686FF480625A617B689B
:1042000000221A637B68202283F83D207B6800220D
:1042100083F83E207B681B6C43F004027B681A64C1
:104220007B68002283F83C20012300E0002318462D
:104230000C37BD4680BC704780B586B000AF786053
:104240007B68002B01D1012372E27B681B6803F0BD
:104250000103002B00F08780924B5B6803F00C0396
:10426000042B0CD08F4B5B6803F00C03082B12D18E
:104270008C4B5B6803F48033B3F5803F0BD1894BE3
:104280001B6803F40033002B6CD07B685B68002B49
:1042900068D101234CE27B685B68B3F5803F06D1AF
:1042A000804B1B687F4A43F4803313602EE07B68A9
:1042B0005B68002B0CD17B4B1B687A4A23F480335C
:1042C0001360784B1B68774A23F4802313601DE04A
:1042D0007B685B68B3F5A02F0CD1724B1B68714AE9
:1042E00043F4802313606F4B1B686E4A43F48033A2
:1042F00013600BE06B4B1B686A4A23F48033136036
:10430000684B1B68674A23F4802313607B685B68F3
:10431000002B13D0FEF71EFB386108E0FEF71AFBF6
:1043200002463B69D31A642B01D9032300E25D4B9B
:104330001B6803F40033002BF0D014E0FEF70AFBF7
:10434000386108E0FEF706FB02463B69D31A642B8E
:1043500001D90323ECE1534B1B6803F40033002B1A
:10436000F0D100E000BF7B681B6803F00203002B64
:1043700063D04C4B5B6803F00C03002B0BD0494B14
:104380005B6803F00C03082B1CD1464B5B6803F4FD
:104390008033002B16D1434B1B6803F00203002B24
:1043A00005D07B681B69012B01D00123C0E13D4B87
:1043B0001B6823F0F8027B685B69DB003949134313
:1043C0000B603AE07B681B69002B20D0364B012242
:1043D0001A60FEF7BFFA386108E0FEF7BBFA024642
:1043E0003B69D31A022B01D90323A1E12D4B1B6892
:1043F00003F00203002BF0D02A4B1B6823F0F802D5
:104400007B685B69DB00274913430B6015E0264B93
:1044100000221A60FEF79EFA386108E0FEF79AFA69
:1044200002463B69D31A022B01D9032380E11D4BBD
:104430001B6803F00203002BF0D17B681B6803F0BC
:104440000803002B3AD07B689B69002B19D0174BCF
:1044500001221A60FEF77EFA386108E0FEF77AFA68
:1044600002463B69D31A022B01D9032360E10D4BAD
:104470005B6A03F00203002BF0D0012000F0C4FAC5
:104480001CE00A4B00221A60FEF764FA38610FE064
:10449000FEF760FA02463B69D31A022B08D90323C0
:1044A00046E100BF00100240000042428004424248
:1044B000924B5B6A03F00203002BE9D17B681B6817
:1044C00003F00403002B00F0A6800023FB758B4B48
:1044D000DB6903F08053002B0DD1884BDB69874AE1
:1044E00043F08053D361854BDB6903F08053BB609D
:1044F000BB680123FB75824B1B6803F48073002BA0
:1045000018D17F4B1B687E4A43F480731360FEF71B
:1045100021FA386108E0FEF71DFA02463B69D31A1A
:10452000642B01D9032303E1754B1B6803F48073EB
:10453000002BF0D07B68DB68012B06D16F4B1B6A28
:104540006E4A43F0010313622DE07B68DB68002BA9
:104550000CD16A4B1B6A694A23F001031362674B53
:104560001B6A664A23F0040313621CE07B68DB6865
:10457000052B0CD1614B1B6A604A43F004031362A4
:104580005E4B1B6A5D4A43F0010313620BE05B4B19
:104590001B6A5A4A23F001031362584B1B6A574A9D
:1045A00023F0040313627B68DB68002B15D0FEF751
:1045B000D1F938610AE0FEF7CDF902463B69D31A1A
:1045C00041F28832934201D90323B1E04B4B1B6A7D
:1045D00003F00203002BEED014E0FEF7BBF93861C4
:1045E0000AE0FEF7B7F902463B69D31A41F2883276
:1045F000934201D903239BE0404B1B6A03F0020363
:10460000002BEED1FB7D012B05D13C4BDB693B4AF6
:1046100023F08053D3617B68DB69002B00F0878037
:10462000364B5B6803F00C03082B61D07B68DB69B9
:10463000022B46D1334B00221A60FEF78BF938610A
:1046400008E0FEF787F902463B69D31A022B01D92D
:1046500003236DE0294B1B6803F00073002BF0D19E
:104660007B681B6AB3F5803F08D1244B5B6823F459
:1046700000327B689B68214913434B601F4B5B688A
:1046800023F474127B68196A7B685B6A0B431B49CD
:1046900013434B601B4B01221A60FEF75BF9386134
:1046A00008E0FEF757F902463B69D31A022B01D9FD
:1046B00003233DE0114B1B6803F00073002BF0D087
:1046C00035E0104B00221A60FEF744F9386108E02B
:1046D000FEF740F902463B69D31A022B01D90323A6
:1046E00026E0064B1B6803F00073002BF0D11EE0A0
:1046F0007B68DB69012B07D1012319E00010024020
:1047000000700040600042420B4B5B68FB60FB683E
:1047100003F480327B681B6A9A4206D1FB6803F47B
:1047200070127B685B6A9A4201D0012300E000238B
:1047300018461837BD4680BD0010024080B584B0D1
:1047400000AF786039607B68002B01D10123D0E095
:104750006A4B1B6803F007033A689A4210D9674B0B
:104760001B6823F0070265493B6813430B60634BEA
:104770001B6803F007033A689A4201D00123B8E0AE
:104780007B681B6803F00203002B20D07B681B684A
:1047900003F00403002B05D0594B5B68584A43F4DF
:1047A000E06353607B681B6803F00803002B05D0AF
:1047B000534B5B68524A43F460535360504B5B6801
:1047C00023F0F0027B689B684D4913434B607B6884
:1047D0001B6803F00103002B40D07B685B68012B52
:1047E00007D1474B1B6803F40033002B15D101237D
:1047F0007FE07B685B68022B07D1414B1B6803F0AD
:104800000073002B09D1012373E03D4B1B6803F0BB
:104810000203002B01D101236BE0394B5B6823F0CD
:1048200003027B685B68364913434B60FEF792F8DE
:10483000F8600AE0FEF78EF80246FB68D31A41F2F0
:104840008832934201D9032353E02D4B5B6803F078
:104850000C027B685B689B009A42EBD1274B1B687C
:1048600003F007033A689A4210D2244B1B6823F0E6
:10487000070222493B6813430B60204B1B6803F07F
:1048800007033A689A4201D0012332E07B681B6833
:1048900003F00403002B08D0194B5B6823F4E0629B
:1048A0007B68DB68164913434B607B681B6803F029
:1048B0000803002B09D0124B5B6823F460527B681D
:1048C0001B69DB000E4913434B6000F021F80246E0
:1048D0000B4B5B681B0903F00F030A49CB5C22FA00
:1048E00003F3094A1360094B1B681846FDF7F0FFF4
:1048F000002318461037BD4680BD00BF002002408F
:1049000000100240808300080400002008000020FE
:1049100090B48AB000AF294B3C1D0FCB84E80F0048
:1049200040F201233B800023FB610023BB61002395
:104930007B6200237B6100233B62214B5B68FB6150
:10494000FB6903F00C03042B02D0082B03D02BE0EF
:104950001C4B3B622BE0FB699B0C03F00F032833DD
:104960003B4413F8243C7B61FB6903F48033002B48
:1049700012D0134B5B685B0C03F0010328333B44FC
:1049800013F8283CBB617B690E4A03FB02F2BB694A
:10499000B2FBF3F37B6204E07B690B4A02FB03F397
:1049A0007B627B6A3B6202E0064B3B6200BF3B6A74
:1049B00018462837BD4690BC704700BF708300087A
:1049C0000010024000127A0000093D0080B400AFE0
:1049D000024B1B681846BD4680BC7047040000208F
:1049E00080B500AFFFF7F2FF0246054B5B681B0A7C
:1049F00003F007030349CB5C22FA03F3184680BD9A
:104A0000001002409083000880B485B000AF786049
:104A10000A4B1B680A4AA2FB03235B0A7A6802FB63
:104A200003F3FB6000BFFB685A1EFA60002BF9D14C
:104A300000BF00BF1437BD4680BC70470400002093
:104A4000D34D621080B582B000AF78607B68002BD8
:104A500001D1012341E07B6893F83D30DBB2002BAC
:104A600006D17B68002283F83C207868FDF79EFD24
:104A70007B68022283F83D207B681A687B680433D8
:104A80001946104600F0BAFA7B68012283F84620E6
:104A90007B68012283F83E207B68012283F83F2057
:104AA0007B68012283F840207B68012283F8412043
:104AB0007B68012283F842207B68012283F843202F
:104AC0007B68012283F844207B68012283F845201B
:104AD0007B68012283F83D20002318460837BD4635
:104AE00080BD000080B485B000AF78607B6893F82B
:104AF0003D30DBB2012B01D0012332E07B68022282
:104B000083F83D207B681B68184A93420ED07B686F
:104B10001B68B3F1804F09D07B681B68144A93422D
:104B200004D07B681B68134A934211D17B681B68D1
:104B30009B6803F00703FB60FB68062B10D07B68C3
:104B40001B681A687B681B6842F001021A6007E064
:104B50007B681B681A687B681B6842F001021A6058
:104B6000002318461437BD4680BC7047002C014016
:104B7000000400400008004080B485B000AF7860B9
:104B80007B6893F83D30DBB2012B01D001233AE082
:104B90007B68022283F83D207B681B68DA687B68AB
:104BA0001B6842F00102DA607B681B68184A934276
:104BB0000ED07B681B68B3F1804F09D07B681B68FF
:104BC000144A934204D07B681B68134A934211D164
:104BD0007B681B689B6803F00703FB60FB68062B80
:104BE00010D07B681B681A687B681B6842F0010262
:104BF0001A6007E07B681B681A687B681B6842F0D4
:104C000001021A60002318461437BD4680BC704765
:104C1000002C0140000400400008004080B582B034
:104C200000AF78607B681B681B6903F00203022BEE
:104C300022D17B681B68DB6803F00203022B1BD1C7
:104C40007B681B686FF002021A617B6801221A7789
:104C50007B681B689B6903F00303002B03D0786813
:104C600000F0B1F905E0786800F0A4F9786800F088
:104C7000B3F97B6800221A777B681B681B6903F015
:104C80000403042B22D17B681B68DB6803F0040358
:104C9000042B1BD17B681B686FF004021A617B68D0
:104CA00002221A777B681B689B6903F44073002B10
:104CB00003D0786800F087F905E0786800F07AF9A9
:104CC000786800F089F97B6800221A777B681B6896
:104CD0001B6903F00803082B22D17B681B68DB6883
:104CE00003F00803082B1BD17B681B686FF00802D8
:104CF0001A617B6804221A777B681B68DB6903F002
:104D00000303002B03D0786800F05DF905E07868B4
:104D100000F050F9786800F05FF97B6800221A779C
:104D20007B681B681B6903F01003102B22D17B6882
:104D30001B68DB6803F01003102B1BD17B681B681A
:104D40006FF010021A617B6808221A777B681B6873
:104D5000DB6903F44073002B03D0786800F033F96B
:104D600005E0786800F026F9786800F035F97B688E
:104D700000221A777B681B681B6903F00103012B73
:104D80000ED17B681B68DB6803F00103012B07D1A0
:104D90007B681B686FF001021A617868FCF7F0FC11
:104DA0007B681B681B6903F08003802B0ED17B6836
:104DB0001B68DB6803F08003802B07D17B681B68CE
:104DC0006FF080021A61786800F077FA7B681B68E0
:104DD0001B6903F04003402B0ED17B681B68DB6826
:104DE00003F04003402B07D17B681B686FF0400243
:104DF0001A61786800F0F9F87B681B681B6903F09A
:104E00002003202B0ED17B681B68DB6803F0200396
:104E1000202B07D17B681B686FF020021A6178682D
:104E200000F042FA00BF0837BD4680BD80B584B0AF
:104E300000AF786039607B6893F83C30012B01D17A
:104E40000223B3E07B68012283F83C207B680222C6
:104E500083F83D207B681B689B68FB60FB6823F040
:104E60007703FB60FB6823F47F43FB607B681B6870
:104E7000FA689A603B681B68B3F5005F3ED0B3F5F3
:104E8000005F00F28780B3F5805F00F08580B3F5A6
:104E9000805F7FD8702B1AD0702B7BD8602B50D0BE
:104EA000602B77D8502B3CD0502B73D8402B58D048
:104EB000402B6FD8302B64D0302B6BD8202B60D098
:104EC000202B67D8002B5CD0102B5AD062E07B6877
:104ED00018683B6899683B685A683B68DB6800F073
:104EE00066F97B681B689B68FB60FB6843F077038F
:104EF000FB607B681B68FA689A604EE07B68186804
:104F00003B6899683B685A683B68DB6800F04FF97A
:104F10007B681B689A687B681B6842F480429A60D1
:104F20003BE07B6818683B6859683B68DB681A4659
:104F300000F0C6F87B681B685021184600F01DF988
:104F40002BE07B6818683B6859683B68DB681A4649
:104F500000F0E4F87B681B686021184600F00DF94A
:104F60001BE07B6818683B6859683B68DB681A4639
:104F700000F0A6F87B681B684021184600F0FDF899
:104F80000BE07B681A683B681B681946104600F006
:104F9000F4F802E000BF00E000BF7B68012283F864
:104FA0003D207B68002283F83C2000231846103700
:104FB000BD4680BD80B483B000AF786000BF0C37C1
:104FC000BD4680BC704780B483B000AF786000BF3E
:104FD0000C37BD4680BC704780B483B000AF7860AA
:104FE00000BF0C37BD4680BC704780B483B000AFB3
:104FF000786000BF0C37BD4680BC704780B485B078
:1050000000AF786039607B681B68FB607B68294A69
:1050100093420BD07B68B3F1804F07D07B68264A60
:10502000934203D07B68254A934208D1FB6823F062
:105030007003FB603B685B68FA681343FB607B6846
:105040001C4A93420BD07B68B3F1804F07D07B683A
:10505000194A934203D07B68184A934208D1FB68EF
:1050600023F44073FB603B68DB68FA681343FB6022
:10507000FB6823F080023B685B691343FB607B683D
:10508000FA681A603B689A687B68DA623B681A685B
:105090007B689A627B68074A934203D13B681A692E
:1050A0007B681A637B6801225A6100BF1437BD46D2
:1050B00080BC7047002C0140000400400008004004
:1050C00080B487B000AFF860B9607A60FB681B6A93
:1050D0007B61FB681B6A23F00102FB681A62FB68B4
:1050E0009B693B613B6923F0F0033B617B681B01DB
:1050F0003A6913433B617B6923F00A037B617A6958
:10510000BB6813437B61FB683A699A61FB687A6903
:105110001A6200BF1C37BD4680BC704780B487B0A0
:1051200000AFF860B9607A60FB681B6A23F0100278
:10513000FB681A62FB689B697B61FB681B6A3B61C9
:105140007B6923F470437B617B681B037A6913439B
:105150007B613B6923F0A0033B61BB681B013A699B
:1051600013433B61FB687A699A61FB683A691A628A
:1051700000BF1C37BD4680BC704780B485B000AF0F
:10518000786039607B689B68FB60FB6823F0700384
:10519000FB603A68FB68134343F00703FB607B68DE
:1051A000FA689A6000BF1437BD4680BC704780B46F
:1051B00087B000AFF860B9607A603B60FB689B68BD
:1051C0007B617B6923F47F437B613B681A027B68C8
:1051D0001A43BB6813437A6913437B61FB687A699E
:1051E0009A6000BF1C37BD4680BC704780B485B054
:1051F00000AF786039607B6893F83C30012B01D1B7
:10520000022346E07B68012283F83C207B6802226F
:1052100083F83D207B681B685B68FB607B681B68CC
:105220009B68BB60FB6823F07003FB603B681B68F6
:10523000FA681343FB607B681B68FA685A607B68F6
:105240001B68164A93420ED07B681B68B3F1804FEF
:1052500009D07B681B68124A934204D07B681B68A4
:10526000104A93420CD1BB6823F08003BB603B68BB
:105270005B68BA681343BB607B681B68BA689A6056
:105280007B68012283F83D207B68002283F83C2064
:10529000002318461437BD4680BC7047002C0140DF
:1052A000000400400008004080B483B000AF786084
:1052B00000BF0C37BD4680BC704780B483B000AFE0
:1052C000786000BF0C37BD4680BC7047014B186842
:1052D000704700BF1000002070B500260C4D0D4C2B
:1052E000641BA410A64209D103F00CF800260A4D55
:1052F0000A4C641BA410A64205D170BD55F8043BAE
:1053000098470136EEE755F8043B98470136F2E737
:10531000748700087487000874870008788700087D
:1053200003460244934200D1704703F8011BF9E79A
:10533000002B2DE9F0471F46BBBF03F100431F467A
:1053400000232D2388B01446129A109D1370149BCD
:10535000DDF84CA023F02008B8F1460F05D0B8F1D5
:10536000450F00D10135022300E0032307AA049270
:1053700006AACDE902A2CDE9003522463B4600F05F
:10538000C3FCB8F1470F064602D1119BDB0722D5BB
:10539000B8F1460F06EB050910D13378302B0AD14E
:1053A0000022002320463946FBF7FEFA18B9C5F162
:1053B0000105CAF80050DAF80030994400220023B1
:1053C00020463946FBF7F0FA08B1CDF81C903022A0
:1053D000079B4B4507D33046079B159A9B1B1360D1
:1053E00008B0BDE8F087591C07911A70F0E7034632
:1053F000F7B5002903F8022BB6BF2D222B22494214
:10540000092942702BDD0DF10704A4460A2791FB00
:10541000F7F60A46A64607FB1615632A05F130057E
:10542000314604F1FF340EF8015CF0DC3031AEF1AE
:10543000020504F8011C2946441C61450AD30DF1FC
:105440000902A2EB0E02654588BF00221344181A18
:1054500003B0F0BD11F8012B04F8012FEDE7302364
:1054600030318370C170031DF1E700002DE9F04F6A
:1054700091B00C46DDF8688016461F46054601F0DF
:1054800031FA036818460993FAF762FE00230E9377
:10549000D8F800300A90073323F0070303F108021D
:1054A00094F81890D4F800B0C8F80020D3E900238D
:1054B000C4E91223D4E9128A2AF000430B934FF077
:1054C000FF3240469C4B0B99FBF7A0FA70BB4FF0A4
:1054D000FF324046984B0B99FBF77AFA30BB00221B
:1054E000002340465146FBF769FA10B12D2384F89A
:1054F0004330924B9248B9F1470F94BF984680468B
:1055000003234FF0000A23612BF00403236033468A
:105510002146284600970FAA00F0D4F9013040F048
:1055200090804FF0FF3011B0BDE8F08F42465346F7
:1055300040465146FBF76AFA48B1BAF1000FB8BFCE
:105540002D238048B8BF84F843307F4BD3E763688E
:1055500009F0DF015A1C42D1062363600022069243
:105560000EAACDE904920DAA4BF4806303920DF1CB
:105570003302CDE901322360636842460093284636
:1055800053460B91FFF7D4FE0B99804647290D999E
:1055900008D1C81C02DB6368994240DDA9F1020909
:1055A0005FFA89F9B9F1650F1FD84A46013904F14C
:1055B00050000D91FFF71BFF0E9A82461318012A27
:1055C000236102DC2268D20701D5013323619DF8F3
:1055D0003330002B9BD02D2384F8433097E74729A5
:1055E000BCD1002BBAD10123B7E7B9F1660F18D1AE
:1055F000002963680BDD216113B92268D00702D549
:1056000001330B4423614FF0000AA165DFE713B9B2
:105610002268D20701D50233F4E70123F2E74FF005
:1056200067090E9B994205DB23682161D807EAD5FB
:105630004B1CE7E70029CCBF0122C1F10202134451
:10564000E0E723685A0507D42369424631462846D5
:10565000B84701302BD164E7B9F1650F40F2DD8026
:10566000D4E9120100220023FBF79EF9002833D071
:10567000012331462846354AB84701303FF451AF3F
:10568000DDE90D239A4202DB2368D8070FD5DDE957
:10569000092331462846B84701303FF442AF4FF066
:1056A000000804F11A090E9B013B434509DC2368FD
:1056B0009B0700F10281E0680F9B9842B8BF184633
:1056C00031E701234A4631462846B84701303FF4C6
:1056D00028AF08F10108E6E70D9B002B38DC012319
:1056E00031462846194AB84701303FF41AAFDDE980
:1056F0000D23134302D12368D907D8D5DDE9092347
:1057000031462846B84701303FF40BAF4FF000094F
:1057100004F11A0A0D9B5B424B4501DC0E9B94E79A
:105720000123524631462846B84701303FF4F9AECE
:1057300009F10109EEE700BFFFFFEF7F9C8300083E
:10574000A0830008A8830008A4830008AC83000895
:105750000E9AA36D9A42A8BF1A46002A914637DCDA
:105760004FF0000B29EAE97904F11A02D4F858A0A5
:10577000AAEB09035B4533DCDDE90D239A423BDBF1
:105780002368DA0738D40E9B0D99A3EB0A02A3EB2A
:1057900001099145A8BF9146B9F1000F34DC4FF0E3
:1057A000000829EAE97904F11A0ADDE90D239B1AB8
:1057B000A3EB090343457FF77AAF012352463146F5
:1057C0002846B84701303FF4ACAE08F10108ECE7D9
:1057D0001346314642462846B8470130C0D1A0E6BC
:1057E0000123314628460B92B84701303FF499AE69
:1057F0000B9A0BF1010BB9E73146DDE90923284685
:10580000B8470130BFD18CE64B463146284608EBFD
:105810000A02B8470130C2D183E60E9A012A01DCA0
:10582000DB0737D50123424631462846B8470130C9
:105830003FF477AEDDE9092331462846B847013009
:105840003FF46FAED4E9120100220023FBF7ACF85D
:10585000D8B90E9B08F10102013B31462846B847F2
:1058600001300ED15DE601234A4631462846B8474D
:1058700001303FF456AE08F101080E9B013B434551
:10588000F1DC534604F15002E0E64FF0000804F169
:105890001A09F2E701234246DFE701234A4631466F
:1058A0002846B84701303FF43CAE08F10108E368F0
:1058B0000F995B1A4345F0DCFDE64FF0000804F158
:1058C0001909F4E72DE9F047164699468A680B69ED
:1058D00007469342B8BF1346336091F843200C4605
:1058E000DDF820800AB1013333602368990642BF96
:1058F000336802333360256815F0060506D104F1DC
:10590000190AE36832689B1AAB4228DC94F84320FA
:10591000131E226818BF012392062DD4494638462B
:1059200004F14302C047013020D02368E56803F04A
:105930000603042B18BF002532684FF00006A36849
:1059400008BFAD1A226908BF25EAE5759342C4BFB6
:105950009B1AED181A34B5421AD1002008E0012331
:10596000524649463846C047013003D14FF0FF3018
:10597000BDE8F0870135C4E73020E11881F8430025
:105980005A1C94F845102244023382F84310C5E7AC
:105990000123224649463846C0470130E6D0013649
:1059A000D9E700002DE9FF470F7E9146782F80460A
:1059B0000C469A460C9D01F1430207D8622F0AD883
:1059C000002F00F0D980582F00F0A48004F1420588
:1059D00084F842703AE0A7F16303152BF6D801A1D1
:1059E00051F823F03D5A0008515A0008CD590008DB
:1059F000CD590008CD590008CD590008515A00086A
:105A0000CD590008CD590008CD590008CD590008DE
:105A10005F5B0008815A0008415B0008CD5900080F
:105A2000CD590008815B0008CD590008815A000853
:105A3000CD590008CD590008495B00082B681A1D94
:105A40001B682A6004F1420584F842300123A4E077
:105A500020682968060601F104030AD50E682B6048
:105A6000002E03DA2D23764284F843300A235E4861
:105A700019E00E6810F0400F2B6018BF36B2EFE748
:105A80002B682068191D2960010601D51E6802E0F7
:105A90004606FBD51E886F2F0CBF08230A235248E9
:105AA000002184F843106568002DA8BF2168A56017
:105AB000A4BF21F0040121600EB9002D4DD0154680
:105AC000B6FBF3F103FB1167C75D05F8017D3746AF
:105AD000BB420E46F4D9082B0BD12368DE0708D54C
